{
  "contractName": "Proposal",
  "abi": [
    {
      "constant": true,
      "inputs": [
        {
          "name": "",
          "type": "uint256"
        }
      ],
      "name": "proposals",
      "outputs": [
        {
          "name": "title",
          "type": "string"
        },
        {
          "name": "content",
          "type": "string"
        },
        {
          "name": "status",
          "type": "uint256"
        }
      ],
      "payable": false,
      "stateMutability": "view",
      "type": "function"
    },
    {
      "constant": true,
      "inputs": [],
      "name": "mintingFinished",
      "outputs": [
        {
          "name": "",
          "type": "bool"
        }
      ],
      "payable": false,
      "stateMutability": "view",
      "type": "function"
    },
    {
      "constant": true,
      "inputs": [],
      "name": "name",
      "outputs": [
        {
          "name": "",
          "type": "string"
        }
      ],
      "payable": false,
      "stateMutability": "view",
      "type": "function"
    },
    {
      "constant": true,
      "inputs": [],
      "name": "totalSupply",
      "outputs": [
        {
          "name": "",
          "type": "uint256"
        }
      ],
      "payable": false,
      "stateMutability": "view",
      "type": "function"
    },
    {
      "constant": false,
      "inputs": [
        {
          "name": "_from",
          "type": "address"
        },
        {
          "name": "_to",
          "type": "address"
        },
        {
          "name": "_value",
          "type": "uint256"
        }
      ],
      "name": "transferFrom",
      "outputs": [
        {
          "name": "",
          "type": "bool"
        }
      ],
      "payable": false,
      "stateMutability": "nonpayable",
      "type": "function"
    },
    {
      "constant": true,
      "inputs": [
        {
          "name": "",
          "type": "address"
        }
      ],
      "name": "partyOf",
      "outputs": [
        {
          "name": "",
          "type": "uint256"
        }
      ],
      "payable": false,
      "stateMutability": "view",
      "type": "function"
    },
    {
      "constant": true,
      "inputs": [],
      "name": "INITIAL_SUPPLY",
      "outputs": [
        {
          "name": "",
          "type": "uint256"
        }
      ],
      "payable": false,
      "stateMutability": "view",
      "type": "function"
    },
    {
      "constant": true,
      "inputs": [],
      "name": "decimals",
      "outputs": [
        {
          "name": "",
          "type": "uint8"
        }
      ],
      "payable": false,
      "stateMutability": "view",
      "type": "function"
    },
    {
      "constant": false,
      "inputs": [
        {
          "name": "_to",
          "type": "address"
        },
        {
          "name": "_amount",
          "type": "uint256"
        }
      ],
      "name": "mint",
      "outputs": [
        {
          "name": "",
          "type": "bool"
        }
      ],
      "payable": false,
      "stateMutability": "nonpayable",
      "type": "function"
    },
    {
      "constant": false,
      "inputs": [
        {
          "name": "_value",
          "type": "uint256"
        }
      ],
      "name": "burn",
      "outputs": [],
      "payable": false,
      "stateMutability": "nonpayable",
      "type": "function"
    },
    {
      "constant": true,
      "inputs": [
        {
          "name": "",
          "type": "uint256"
        }
      ],
      "name": "statusLogs",
      "outputs": [
        {
          "name": "id",
          "type": "uint256"
        },
        {
          "name": "action",
          "type": "uint256"
        },
        {
          "name": "date",
          "type": "uint256"
        },
        {
          "name": "user",
          "type": "address"
        }
      ],
      "payable": false,
      "stateMutability": "view",
      "type": "function"
    },
    {
      "constant": true,
      "inputs": [
        {
          "name": "",
          "type": "uint256"
        },
        {
          "name": "",
          "type": "uint256"
        }
      ],
      "name": "proposalOwners",
      "outputs": [
        {
          "name": "",
          "type": "address"
        }
      ],
      "payable": false,
      "stateMutability": "view",
      "type": "function"
    },
    {
      "constant": true,
      "inputs": [
        {
          "name": "",
          "type": "uint256"
        }
      ],
      "name": "members",
      "outputs": [
        {
          "name": "",
          "type": "address"
        }
      ],
      "payable": false,
      "stateMutability": "view",
      "type": "function"
    },
    {
      "constant": false,
      "inputs": [
        {
          "name": "_spender",
          "type": "address"
        },
        {
          "name": "_subtractedValue",
          "type": "uint256"
        }
      ],
      "name": "decreaseApproval",
      "outputs": [
        {
          "name": "",
          "type": "bool"
        }
      ],
      "payable": false,
      "stateMutability": "nonpayable",
      "type": "function"
    },
    {
      "constant": true,
      "inputs": [
        {
          "name": "_owner",
          "type": "address"
        }
      ],
      "name": "balanceOf",
      "outputs": [
        {
          "name": "",
          "type": "uint256"
        }
      ],
      "payable": false,
      "stateMutability": "view",
      "type": "function"
    },
    {
      "constant": false,
      "inputs": [],
      "name": "renounceOwnership",
      "outputs": [],
      "payable": false,
      "stateMutability": "nonpayable",
      "type": "function"
    },
    {
      "constant": false,
      "inputs": [],
      "name": "finishMinting",
      "outputs": [
        {
          "name": "",
          "type": "bool"
        }
      ],
      "payable": false,
      "stateMutability": "nonpayable",
      "type": "function"
    },
    {
      "constant": true,
      "inputs": [],
      "name": "owner",
      "outputs": [
        {
          "name": "",
          "type": "address"
        }
      ],
      "payable": false,
      "stateMutability": "view",
      "type": "function"
    },
    {
      "constant": true,
      "inputs": [],
      "name": "symbol",
      "outputs": [
        {
          "name": "",
          "type": "string"
        }
      ],
      "payable": false,
      "stateMutability": "view",
      "type": "function"
    },
    {
      "constant": false,
      "inputs": [
        {
          "name": "_to",
          "type": "address"
        },
        {
          "name": "_value",
          "type": "uint256"
        }
      ],
      "name": "transfer",
      "outputs": [
        {
          "name": "",
          "type": "bool"
        }
      ],
      "payable": false,
      "stateMutability": "nonpayable",
      "type": "function"
    },
    {
      "constant": false,
      "inputs": [
        {
          "name": "_spender",
          "type": "address"
        },
        {
          "name": "_addedValue",
          "type": "uint256"
        }
      ],
      "name": "increaseApproval",
      "outputs": [
        {
          "name": "",
          "type": "bool"
        }
      ],
      "payable": false,
      "stateMutability": "nonpayable",
      "type": "function"
    },
    {
      "constant": true,
      "inputs": [
        {
          "name": "_owner",
          "type": "address"
        },
        {
          "name": "_spender",
          "type": "address"
        }
      ],
      "name": "allowance",
      "outputs": [
        {
          "name": "",
          "type": "uint256"
        }
      ],
      "payable": false,
      "stateMutability": "view",
      "type": "function"
    },
    {
      "constant": true,
      "inputs": [
        {
          "name": "",
          "type": "address"
        }
      ],
      "name": "usernames",
      "outputs": [
        {
          "name": "",
          "type": "string"
        }
      ],
      "payable": false,
      "stateMutability": "view",
      "type": "function"
    },
    {
      "constant": false,
      "inputs": [
        {
          "name": "_newOwner",
          "type": "address"
        }
      ],
      "name": "transferOwnership",
      "outputs": [],
      "payable": false,
      "stateMutability": "nonpayable",
      "type": "function"
    },
    {
      "anonymous": false,
      "inputs": [
        {
          "indexed": true,
          "name": "burner",
          "type": "address"
        },
        {
          "indexed": false,
          "name": "value",
          "type": "uint256"
        }
      ],
      "name": "Burn",
      "type": "event"
    },
    {
      "anonymous": false,
      "inputs": [
        {
          "indexed": true,
          "name": "to",
          "type": "address"
        },
        {
          "indexed": false,
          "name": "amount",
          "type": "uint256"
        }
      ],
      "name": "Mint",
      "type": "event"
    },
    {
      "anonymous": false,
      "inputs": [],
      "name": "MintFinished",
      "type": "event"
    },
    {
      "anonymous": false,
      "inputs": [
        {
          "indexed": true,
          "name": "previousOwner",
          "type": "address"
        }
      ],
      "name": "OwnershipRenounced",
      "type": "event"
    },
    {
      "anonymous": false,
      "inputs": [
        {
          "indexed": true,
          "name": "previousOwner",
          "type": "address"
        },
        {
          "indexed": true,
          "name": "newOwner",
          "type": "address"
        }
      ],
      "name": "OwnershipTransferred",
      "type": "event"
    },
    {
      "anonymous": false,
      "inputs": [
        {
          "indexed": true,
          "name": "owner",
          "type": "address"
        },
        {
          "indexed": true,
          "name": "spender",
          "type": "address"
        },
        {
          "indexed": false,
          "name": "value",
          "type": "uint256"
        }
      ],
      "name": "Approval",
      "type": "event"
    },
    {
      "anonymous": false,
      "inputs": [
        {
          "indexed": true,
          "name": "from",
          "type": "address"
        },
        {
          "indexed": true,
          "name": "to",
          "type": "address"
        },
        {
          "indexed": false,
          "name": "value",
          "type": "uint256"
        }
      ],
      "name": "Transfer",
      "type": "event"
    },
    {
      "constant": false,
      "inputs": [
        {
          "name": "_party",
          "type": "uint256"
        },
        {
          "name": "_username",
          "type": "string"
        }
      ],
      "name": "register",
      "outputs": [],
      "payable": false,
      "stateMutability": "nonpayable",
      "type": "function"
    },
    {
      "constant": true,
      "inputs": [],
      "name": "getMembers",
      "outputs": [
        {
          "name": "",
          "type": "address[]"
        }
      ],
      "payable": false,
      "stateMutability": "view",
      "type": "function"
    },
    {
      "constant": true,
      "inputs": [],
      "name": "getProposalsCount",
      "outputs": [
        {
          "name": "",
          "type": "uint256"
        }
      ],
      "payable": false,
      "stateMutability": "view",
      "type": "function"
    },
    {
      "constant": true,
      "inputs": [],
      "name": "getStatusLogCount",
      "outputs": [
        {
          "name": "",
          "type": "uint256"
        }
      ],
      "payable": false,
      "stateMutability": "view",
      "type": "function"
    },
    {
      "constant": false,
      "inputs": [
        {
          "name": "_title",
          "type": "string"
        },
        {
          "name": "_content",
          "type": "string"
        }
      ],
      "name": "create",
      "outputs": [],
      "payable": false,
      "stateMutability": "nonpayable",
      "type": "function"
    },
    {
      "constant": false,
      "inputs": [
        {
          "name": "_spender",
          "type": "address"
        },
        {
          "name": "_value",
          "type": "uint256"
        }
      ],
      "name": "approve",
      "outputs": [
        {
          "name": "",
          "type": "bool"
        }
      ],
      "payable": false,
      "stateMutability": "nonpayable",
      "type": "function"
    },
    {
      "constant": false,
      "inputs": [
        {
          "name": "_id",
          "type": "uint256"
        },
        {
          "name": "_content",
          "type": "string"
        }
      ],
      "name": "approve",
      "outputs": [],
      "payable": false,
      "stateMutability": "nonpayable",
      "type": "function"
    },
    {
      "constant": false,
      "inputs": [
        {
          "name": "_id",
          "type": "uint256"
        },
        {
          "name": "_content",
          "type": "string"
        }
      ],
      "name": "disapprove",
      "outputs": [],
      "payable": false,
      "stateMutability": "nonpayable",
      "type": "function"
    }
  ],
  "bytecode": "0x60806040526000600360146101000a81548160ff0219169083151502179055506040805190810160405280600981526020017f424f4349546f6b656e0000000000000000000000000000000000000000000000815250600490805190602001906200006c92919062000125565b506040805190810160405280600581526020017f424954763500000000000000000000000000000000000000000000000000000081525060059080519060200190620000ba92919062000125565b506000600660006101000a81548160ff021916908360ff160217905550620f424060075533600360006101000a81548173ffffffffffffffffffffffffffffffffffffffff021916908373ffffffffffffffffffffffffffffffffffffffff160217905550620001d4565b828054600181600116156101000203166002900490600052602060002090601f016020900481019282601f106200016857805160ff191683800117855562000199565b8280016001018555821562000199579182015b82811115620001985782518255916020019190600101906200017b565b5b509050620001a89190620001ac565b5090565b620001d191905b80821115620001cd576000816000905550600101620001b3565b5090565b90565b6138c080620001e46000396000f300608060405260043610610196576000357c0100000000000000000000000000000000000000000000000000000000900463ffffffff168063013cf08b1461019b57806305d2035b146102b457806306fdde03146102e3578063095ea7b31461037357806318160ddd146103d8578063198e2b8a146104035780631b76dd7c146104b257806321faf4031461052557806323b872dd146105505780632cea2d3b146105d55780632ff2e9dc1461062c578063313ce5671461065757806340c10f191461068857806342966c68146106ed57806347efe2de1461071a578063565003f51461079c5780635daf08ca14610813578063661884631461088057806370a08231146108e5578063715018a61461093c57806372405ab0146109535780637d64bcb4146109c65780638da5cb5b146109f557806395d89b4114610a4c57806398e527d314610adc5780639eab525314610b07578063a00fd3c814610b73578063a9059cbb14610be6578063d73dd62314610c4b578063dd62ed3e14610cb0578063ee91877c14610d27578063f2fde38b14610de3575b600080fd5b3480156101a757600080fd5b506101c660048036038101908080359060200190929190505050610e26565b604051808060200180602001848152602001838103835286818151815260200191508051906020019080838360005b838110156102105780820151818401526020810190506101f5565b50505050905090810190601f16801561023d5780820380516001836020036101000a031916815260200191505b50838103825285818151815260200191508051906020019080838360005b8381101561027657808201518184015260208101905061025b565b50505050905090810190601f1680156102a35780820380516001836020036101000a031916815260200191505b509550505050505060405180910390f35b3480156102c057600080fd5b506102c9610f8f565b604051808215151515815260200191505060405180910390f35b3480156102ef57600080fd5b506102f8610fa2565b6040518080602001828103825283818151815260200191508051906020019080838360005b8381101561033857808201518184015260208101905061031d565b50505050905090810190601f1680156103655780820380516001836020036101000a031916815260200191505b509250505060405180910390f35b34801561037f57600080fd5b506103be600480360381019080803573ffffffffffffffffffffffffffffffffffffffff16906020019092919080359060200190929190505050611040565b604051808215151515815260200191505060405180910390f35b3480156103e457600080fd5b506103ed611132565b6040518082815260200191505060405180910390f35b34801561040f57600080fd5b506104b0600480360381019080803590602001908201803590602001908080601f0160208091040260200160405190810160405280939291908181526020018383808284378201915050505050509192919290803590602001908201803590602001908080601f016020809104026020016040519081016040528093929190818152602001838380828437820191505050505050919291929050505061113c565b005b3480156104be57600080fd5b5061052360048036038101908080359060200190929190803590602001908201803590602001908080601f016020809104026020016040519081016040528093929190818152602001838380828437820191505050505050919291929050505061146c565b005b34801561053157600080fd5b5061053a611ad5565b6040518082815260200191505060405180910390f35b34801561055c57600080fd5b506105bb600480360381019080803573ffffffffffffffffffffffffffffffffffffffff169060200190929190803573ffffffffffffffffffffffffffffffffffffffff16906020019092919080359060200190929190505050611ae2565b604051808215151515815260200191505060405180910390f35b3480156105e157600080fd5b50610616600480360381019080803573ffffffffffffffffffffffffffffffffffffffff169060200190929190505050611e9d565b6040518082815260200191505060405180910390f35b34801561063857600080fd5b50610641611eb5565b6040518082815260200191505060405180910390f35b34801561066357600080fd5b5061066c611ebb565b604051808260ff1660ff16815260200191505060405180910390f35b34801561069457600080fd5b506106d3600480360381019080803573ffffffffffffffffffffffffffffffffffffffff16906020019092919080359060200190929190505050611ece565b604051808215151515815260200191505060405180910390f35b3480156106f957600080fd5b5061071860048036038101908080359060200190929190505050612058565b005b34801561072657600080fd5b5061074560048036038101908080359060200190929190505050612065565b604051808581526020018481526020018381526020018273ffffffffffffffffffffffffffffffffffffffff1673ffffffffffffffffffffffffffffffffffffffff16815260200194505050505060405180910390f35b3480156107a857600080fd5b506107d160048036038101908080359060200190929190803590602001909291905050506120c4565b604051808273ffffffffffffffffffffffffffffffffffffffff1673ffffffffffffffffffffffffffffffffffffffff16815260200191505060405180910390f35b34801561081f57600080fd5b5061083e60048036038101908080359060200190929190505050612111565b604051808273ffffffffffffffffffffffffffffffffffffffff1673ffffffffffffffffffffffffffffffffffffffff16815260200191505060405180910390f35b34801561088c57600080fd5b506108cb600480360381019080803573ffffffffffffffffffffffffffffffffffffffff1690602001909291908035906020019092919050505061214f565b604051808215151515815260200191505060405180910390f35b3480156108f157600080fd5b50610926600480360381019080803573ffffffffffffffffffffffffffffffffffffffff1690602001909291905050506123e1565b6040518082815260200191505060405180910390f35b34801561094857600080fd5b50610951612429565b005b34801561095f57600080fd5b506109c460048036038101908080359060200190929190803590602001908201803590602001908080601f016020809104026020016040519081016040528093929190818152602001838380828437820191505050505050919291929050505061252e565b005b3480156109d257600080fd5b506109db612b82565b604051808215151515815260200191505060405180910390f35b348015610a0157600080fd5b50610a0a612c4a565b604051808273ffffffffffffffffffffffffffffffffffffffff1673ffffffffffffffffffffffffffffffffffffffff16815260200191505060405180910390f35b348015610a5857600080fd5b50610a61612c70565b6040518080602001828103825283818151815260200191508051906020019080838360005b83811015610aa1578082015181840152602081019050610a86565b50505050905090810190601f168015610ace5780820380516001836020036101000a031916815260200191505b509250505060405180910390f35b348015610ae857600080fd5b50610af1612d0e565b6040518082815260200191505060405180910390f35b348015610b1357600080fd5b50610b1c612d1b565b6040518080602001828103825283818151815260200191508051906020019060200280838360005b83811015610b5f578082015181840152602081019050610b44565b505050509050019250505060405180910390f35b348015610b7f57600080fd5b50610be460048036038101908080359060200190929190803590602001908201803590602001908080601f0160208091040260200160405190810160405280939291908181526020018383808284378201915050505050509192919290505050612da9565b005b348015610bf257600080fd5b50610c31600480360381019080803573ffffffffffffffffffffffffffffffffffffffff16906020019092919080359060200190929190505050612ed0565b604051808215151515815260200191505060405180910390f35b348015610c5757600080fd5b50610c96600480360381019080803573ffffffffffffffffffffffffffffffffffffffff169060200190929190803590602001909291905050506130f0565b604051808215151515815260200191505060405180910390f35b348015610cbc57600080fd5b50610d11600480360381019080803573ffffffffffffffffffffffffffffffffffffffff169060200190929190803573ffffffffffffffffffffffffffffffffffffffff1690602001909291905050506132ec565b6040518082815260200191505060405180910390f35b348015610d3357600080fd5b50610d68600480360381019080803573ffffffffffffffffffffffffffffffffffffffff169060200190929190505050613373565b6040518080602001828103825283818151815260200191508051906020019080838360005b83811015610da8578082015181840152602081019050610d8d565b50505050905090810190601f168015610dd55780820380516001836020036101000a031916815260200191505b509250505060405180910390f35b348015610def57600080fd5b50610e24600480360381019080803573ffffffffffffffffffffffffffffffffffffffff169060200190929190505050613423565b005b600a81815481101515610e3557fe5b9060005260206000209060030201600091509050806000018054600181600116156101000203166002900480601f016020809104026020016040519081016040528092919081815260200182805460018160011615610100020316600290048015610ee15780601f10610eb657610100808354040283529160200191610ee1565b820191906000526020600020905b815481529060010190602001808311610ec457829003601f168201915b505050505090806001018054600181600116156101000203166002900480601f016020809104026020016040519081016040528092919081815260200182805460018160011615610100020316600290048015610f7f5780601f10610f5457610100808354040283529160200191610f7f565b820191906000526020600020905b815481529060010190602001808311610f6257829003601f168201915b5050505050908060020154905083565b600360149054906101000a900460ff1681565b60048054600181600116156101000203166002900480601f0160208091040260200160405190810160405280929190818152602001828054600181600116156101000203166002900480156110385780601f1061100d57610100808354040283529160200191611038565b820191906000526020600020905b81548152906001019060200180831161101b57829003601f168201915b505050505081565b600081600260003373ffffffffffffffffffffffffffffffffffffffff1673ffffffffffffffffffffffffffffffffffffffff16815260200190815260200160002060008573ffffffffffffffffffffffffffffffffffffffff1673ffffffffffffffffffffffffffffffffffffffff168152602001908152602001600020819055508273ffffffffffffffffffffffffffffffffffffffff163373ffffffffffffffffffffffffffffffffffffffff167f8c5be1e5ebec7d5bd14f71427d1e84f3dd0314c0f7b2291e5b200ac8c7c3b925846040518082815260200191505060405180910390a36001905092915050565b6000600154905090565b60006001600860003373ffffffffffffffffffffffffffffffffffffffff1673ffffffffffffffffffffffffffffffffffffffff1681526020019081526020016000205414151561118c57600080fd5b600a805490509050600a60606040519081016040528085815260200184815260200160018152509080600181540180825580915050906001820390600052602060002090600302016000909192909190915060008201518160000190805190602001906111fa92919061376f565b50602082015181600101908051906020019061121792919061376f565b5060408201518160020155505050611231336103e8611ece565b50600b608060405190810160405280838152602001600081526020014281526020013373ffffffffffffffffffffffffffffffffffffffff168152509080600181540180825580915050906001820390600052602060002090600402016000909192909190915060008201518160000155602082015181600101556040820151816002015560608201518160030160006101000a81548173ffffffffffffffffffffffffffffffffffffffff021916908373ffffffffffffffffffffffffffffffffffffffff160217905550505050600d60008281526020019081526020016000203390806001815401808255809150509060018203906000526020600020016000909192909190916101000a81548173ffffffffffffffffffffffffffffffffffffffff021916908373ffffffffffffffffffffffffffffffffffffffff16021790555050600d6000828152602001908152602001600020600090806001815401808255809150509060018203906000526020600020016000909192909190916101000a81548173ffffffffffffffffffffffffffffffffffffffff021916908373ffffffffffffffffffffffffffffffffffffffff16021790555050600d6000828152602001908152602001600020600090806001815401808255809150509060018203906000526020600020016000909192909190916101000a81548173ffffffffffffffffffffffffffffffffffffffff021916908373ffffffffffffffffffffffffffffffffffffffff16021790555050505050565b6000600a8381548110151561147d57fe5b90600052602060002090600302016002015414801561151257503373ffffffffffffffffffffffffffffffffffffffff16600d600084815260200190815260200160002060008154811015156114cf57fe5b9060005260206000200160009054906101000a900473ffffffffffffffffffffffffffffffffffffffff1673ffffffffffffffffffffffffffffffffffffffff16145b1561158c576001600860003373ffffffffffffffffffffffffffffffffffffffff1673ffffffffffffffffffffffffffffffffffffffff1681526020019081526020016000205414151561156557600080fd5b6004600a8381548110151561157657fe5b9060005260206000209060030201600201819055505b6001600a8381548110151561159d57fe5b906000526020600020906003020160020154141561179757600073ffffffffffffffffffffffffffffffffffffffff16600d600084815260200190815260200160002060018154811015156115ee57fe5b9060005260206000200160009054906101000a900473ffffffffffffffffffffffffffffffffffffffff1673ffffffffffffffffffffffffffffffffffffffff1614156116a05733600d6000848152602001908152602001600020600181548110151561165757fe5b9060005260206000200160006101000a81548173ffffffffffffffffffffffffffffffffffffffff021916908373ffffffffffffffffffffffffffffffffffffffff1602179055505b6002600860003373ffffffffffffffffffffffffffffffffffffffff1673ffffffffffffffffffffffffffffffffffffffff1681526020019081526020016000205414801561176557503373ffffffffffffffffffffffffffffffffffffffff16600d6000848152602001908152602001600020600181548110151561172257fe5b9060005260206000200160009054906101000a900473ffffffffffffffffffffffffffffffffffffffff1673ffffffffffffffffffffffffffffffffffffffff16145b151561177057600080fd5b6000600a8381548110151561178157fe5b9060005260206000209060030201600201819055505b6002600a838154811015156117a857fe5b90600052602060002090600302016002015414156119a257600073ffffffffffffffffffffffffffffffffffffffff16600d600084815260200190815260200160002060028154811015156117f957fe5b9060005260206000200160009054906101000a900473ffffffffffffffffffffffffffffffffffffffff1673ffffffffffffffffffffffffffffffffffffffff1614156118ab5733600d6000848152602001908152602001600020600281548110151561186257fe5b9060005260206000200160006101000a81548173ffffffffffffffffffffffffffffffffffffffff021916908373ffffffffffffffffffffffffffffffffffffffff1602179055505b6003600860003373ffffffffffffffffffffffffffffffffffffffff1673ffffffffffffffffffffffffffffffffffffffff1681526020019081526020016000205414801561197057503373ffffffffffffffffffffffffffffffffffffffff16600d6000848152602001908152602001600020600281548110151561192d57fe5b9060005260206000200160009054906101000a900473ffffffffffffffffffffffffffffffffffffffff1673ffffffffffffffffffffffffffffffffffffffff16145b151561197b57600080fd5b6001600a8381548110151561198c57fe5b9060005260206000209060030201600201819055505b600b608060405190810160405280848152602001600181526020014281526020013373ffffffffffffffffffffffffffffffffffffffff168152509080600181540180825580915050906001820390600052602060002090600402016000909192909190915060008201518160000155602082015181600101556040820151816002015560608201518160030160006101000a81548173ffffffffffffffffffffffffffffffffffffffff021916908373ffffffffffffffffffffffffffffffffffffffff16021790555050505080600a83815481101515611a8057fe5b90600052602060002090600302016001019080519060200190611aa49291906137ef565b506103e8611ab1336123e1565b111515611ac657611ac4336103e8611ece565b505b611ad16103e8612058565b5050565b6000600b80549050905090565b60008060008573ffffffffffffffffffffffffffffffffffffffff1673ffffffffffffffffffffffffffffffffffffffff168152602001908152602001600020548211151515611b3157600080fd5b600260008573ffffffffffffffffffffffffffffffffffffffff1673ffffffffffffffffffffffffffffffffffffffff16815260200190815260200160002060003373ffffffffffffffffffffffffffffffffffffffff1673ffffffffffffffffffffffffffffffffffffffff168152602001908152602001600020548211151515611bbc57600080fd5b600073ffffffffffffffffffffffffffffffffffffffff168373ffffffffffffffffffffffffffffffffffffffff1614151515611bf857600080fd5b611c49826000808773ffffffffffffffffffffffffffffffffffffffff1673ffffffffffffffffffffffffffffffffffffffff1681526020019081526020016000205461348b90919063ffffffff16565b6000808673ffffffffffffffffffffffffffffffffffffffff1673ffffffffffffffffffffffffffffffffffffffff16815260200190815260200160002081905550611cdc826000808673ffffffffffffffffffffffffffffffffffffffff1673ffffffffffffffffffffffffffffffffffffffff168152602001908152602001600020546134a490919063ffffffff16565b6000808573ffffffffffffffffffffffffffffffffffffffff1673ffffffffffffffffffffffffffffffffffffffff16815260200190815260200160002081905550611dad82600260008773ffffffffffffffffffffffffffffffffffffffff1673ffffffffffffffffffffffffffffffffffffffff16815260200190815260200160002060003373ffffffffffffffffffffffffffffffffffffffff1673ffffffffffffffffffffffffffffffffffffffff1681526020019081526020016000205461348b90919063ffffffff16565b600260008673ffffffffffffffffffffffffffffffffffffffff1673ffffffffffffffffffffffffffffffffffffffff16815260200190815260200160002060003373ffffffffffffffffffffffffffffffffffffffff1673ffffffffffffffffffffffffffffffffffffffff168152602001908152602001600020819055508273ffffffffffffffffffffffffffffffffffffffff168473ffffffffffffffffffffffffffffffffffffffff167fddf252ad1be2c89b69c2b068fc378daa952ba7f163c4a11628f55a4df523b3ef846040518082815260200191505060405180910390a3600190509392505050565b60086020528060005260406000206000915090505481565b60075481565b600660009054906101000a900460ff1681565b6000600360149054906101000a900460ff16151515611eec57600080fd5b611f01826001546134a490919063ffffffff16565b600181905550611f58826000808673ffffffffffffffffffffffffffffffffffffffff1673ffffffffffffffffffffffffffffffffffffffff168152602001908152602001600020546134a490919063ffffffff16565b6000808573ffffffffffffffffffffffffffffffffffffffff1673ffffffffffffffffffffffffffffffffffffffff168152602001908152602001600020819055508273ffffffffffffffffffffffffffffffffffffffff167f0f6798a560793a54c3bcfe86a93cde1e73087d944c0ea20544137d4121396885836040518082815260200191505060405180910390a28273ffffffffffffffffffffffffffffffffffffffff16600073ffffffffffffffffffffffffffffffffffffffff167fddf252ad1be2c89b69c2b068fc378daa952ba7f163c4a11628f55a4df523b3ef846040518082815260200191505060405180910390a36001905092915050565b61206233826134c0565b50565b600b8181548110151561207457fe5b90600052602060002090600402016000915090508060000154908060010154908060020154908060030160009054906101000a900473ffffffffffffffffffffffffffffffffffffffff16905084565b600d602052816000526040600020818154811015156120df57fe5b906000526020600020016000915091509054906101000a900473ffffffffffffffffffffffffffffffffffffffff1681565b600c8181548110151561212057fe5b906000526020600020016000915054906101000a900473ffffffffffffffffffffffffffffffffffffffff1681565b600080600260003373ffffffffffffffffffffffffffffffffffffffff1673ffffffffffffffffffffffffffffffffffffffff16815260200190815260200160002060008573ffffffffffffffffffffffffffffffffffffffff1673ffffffffffffffffffffffffffffffffffffffff1681526020019081526020016000205490508083101515612261576000600260003373ffffffffffffffffffffffffffffffffffffffff1673ffffffffffffffffffffffffffffffffffffffff16815260200190815260200160002060008673ffffffffffffffffffffffffffffffffffffffff1673ffffffffffffffffffffffffffffffffffffffff168152602001908152602001600020819055506122f5565b612274838261348b90919063ffffffff16565b600260003373ffffffffffffffffffffffffffffffffffffffff1673ffffffffffffffffffffffffffffffffffffffff16815260200190815260200160002060008673ffffffffffffffffffffffffffffffffffffffff1673ffffffffffffffffffffffffffffffffffffffff168152602001908152602001600020819055505b8373ffffffffffffffffffffffffffffffffffffffff163373ffffffffffffffffffffffffffffffffffffffff167f8c5be1e5ebec7d5bd14f71427d1e84f3dd0314c0f7b2291e5b200ac8c7c3b925600260003373ffffffffffffffffffffffffffffffffffffffff1673ffffffffffffffffffffffffffffffffffffffff16815260200190815260200160002060008873ffffffffffffffffffffffffffffffffffffffff1673ffffffffffffffffffffffffffffffffffffffff168152602001908152602001600020546040518082815260200191505060405180910390a3600191505092915050565b60008060008373ffffffffffffffffffffffffffffffffffffffff1673ffffffffffffffffffffffffffffffffffffffff168152602001908152602001600020549050919050565b600360009054906101000a900473ffffffffffffffffffffffffffffffffffffffff1673ffffffffffffffffffffffffffffffffffffffff163373ffffffffffffffffffffffffffffffffffffffff1614151561248557600080fd5b600360009054906101000a900473ffffffffffffffffffffffffffffffffffffffff1673ffffffffffffffffffffffffffffffffffffffff167ff8df31144d9c2f0f6b59d69b8b98abd5459d07f2742c4df920b25aae33c6482060405160405180910390a26000600360006101000a81548173ffffffffffffffffffffffffffffffffffffffff021916908373ffffffffffffffffffffffffffffffffffffffff160217905550565b6000600a8381548110151561253f57fe5b9060005260206000209060030201600201541415612652576001600860003373ffffffffffffffffffffffffffffffffffffffff1673ffffffffffffffffffffffffffffffffffffffff1681526020019081526020016000205414801561261c57503373ffffffffffffffffffffffffffffffffffffffff16600d600084815260200190815260200160002060008154811015156125d957fe5b9060005260206000200160009054906101000a900473ffffffffffffffffffffffffffffffffffffffff1673ffffffffffffffffffffffffffffffffffffffff16145b151561262757600080fd5b6001600a8381548110151561263857fe5b906000526020600020906003020160020181905550612a6e565b6001600a8381548110151561266357fe5b906000526020600020906003020160020154141561286157600073ffffffffffffffffffffffffffffffffffffffff16600d600084815260200190815260200160002060018154811015156126b457fe5b9060005260206000200160009054906101000a900473ffffffffffffffffffffffffffffffffffffffff1673ffffffffffffffffffffffffffffffffffffffff1614156127665733600d6000848152602001908152602001600020600181548110151561271d57fe5b9060005260206000200160006101000a81548173ffffffffffffffffffffffffffffffffffffffff021916908373ffffffffffffffffffffffffffffffffffffffff1602179055505b6002600860003373ffffffffffffffffffffffffffffffffffffffff1673ffffffffffffffffffffffffffffffffffffffff1681526020019081526020016000205414801561282b57503373ffffffffffffffffffffffffffffffffffffffff16600d600084815260200190815260200160002060018154811015156127e857fe5b9060005260206000200160009054906101000a900473ffffffffffffffffffffffffffffffffffffffff1673ffffffffffffffffffffffffffffffffffffffff16145b151561283657600080fd5b6002600a8381548110151561284757fe5b906000526020600020906003020160020181905550612a6d565b6002600a8381548110151561287257fe5b9060005260206000209060030201600201541415612a6c57600073ffffffffffffffffffffffffffffffffffffffff16600d600084815260200190815260200160002060028154811015156128c357fe5b9060005260206000200160009054906101000a900473ffffffffffffffffffffffffffffffffffffffff1673ffffffffffffffffffffffffffffffffffffffff1614156129755733600d6000848152602001908152602001600020600281548110151561292c57fe5b9060005260206000200160006101000a81548173ffffffffffffffffffffffffffffffffffffffff021916908373ffffffffffffffffffffffffffffffffffffffff1602179055505b6003600860003373ffffffffffffffffffffffffffffffffffffffff1673ffffffffffffffffffffffffffffffffffffffff16815260200190815260200160002054148015612a3a57503373ffffffffffffffffffffffffffffffffffffffff16600d600084815260200190815260200160002060028154811015156129f757fe5b9060005260206000200160009054906101000a900473ffffffffffffffffffffffffffffffffffffffff1673ffffffffffffffffffffffffffffffffffffffff16145b1515612a4557600080fd5b6003600a83815481101515612a5657fe5b9060005260206000209060030201600201819055505b5b5b600b608060405190810160405280848152602001600281526020014281526020013373ffffffffffffffffffffffffffffffffffffffff168152509080600181540180825580915050906001820390600052602060002090600402016000909192909190915060008201518160000155602082015181600101556040820151816002015560608201518160030160006101000a81548173ffffffffffffffffffffffffffffffffffffffff021916908373ffffffffffffffffffffffffffffffffffffffff16021790555050505080600a83815481101515612b4c57fe5b90600052602060002090600302016001019080519060200190612b709291906137ef565b50612b7d336103e8611ece565b505050565b6000600360009054906101000a900473ffffffffffffffffffffffffffffffffffffffff1673ffffffffffffffffffffffffffffffffffffffff163373ffffffffffffffffffffffffffffffffffffffff16141515612be057600080fd5b600360149054906101000a900460ff16151515612bfc57600080fd5b6001600360146101000a81548160ff0219169083151502179055507fae5184fba832cb2b1f702aca6117b8d265eaf03ad33eb133f19dde0f5920fa0860405160405180910390a16001905090565b600360009054906101000a900473ffffffffffffffffffffffffffffffffffffffff1681565b60058054600181600116156101000203166002900480601f016020809104026020016040519081016040528092919081815260200182805460018160011615610100020316600290048015612d065780601f10612cdb57610100808354040283529160200191612d06565b820191906000526020600020905b815481529060010190602001808311612ce957829003601f168201915b505050505081565b6000600a80549050905090565b6060600c805480602002602001604051908101604052809291908181526020018280548015612d9f57602002820191906000526020600020905b8160009054906101000a900473ffffffffffffffffffffffffffffffffffffffff1673ffffffffffffffffffffffffffffffffffffffff1681526020019060010190808311612d55575b5050505050905090565b6001821480612db85750600282145b80612dc35750600382145b1515612dce57600080fd5b81600860003373ffffffffffffffffffffffffffffffffffffffff1673ffffffffffffffffffffffffffffffffffffffff1681526020019081526020016000208190555080600960003373ffffffffffffffffffffffffffffffffffffffff1673ffffffffffffffffffffffffffffffffffffffff1681526020019081526020016000209080519060200190612e659291906137ef565b50600c3390806001815401808255809150509060018203906000526020600020016000909192909190916101000a81548173ffffffffffffffffffffffffffffffffffffffff021916908373ffffffffffffffffffffffffffffffffffffffff160217905550505050565b60008060003373ffffffffffffffffffffffffffffffffffffffff1673ffffffffffffffffffffffffffffffffffffffff168152602001908152602001600020548211151515612f1f57600080fd5b600073ffffffffffffffffffffffffffffffffffffffff168373ffffffffffffffffffffffffffffffffffffffff1614151515612f5b57600080fd5b612fac826000803373ffffffffffffffffffffffffffffffffffffffff1673ffffffffffffffffffffffffffffffffffffffff1681526020019081526020016000205461348b90919063ffffffff16565b6000803373ffffffffffffffffffffffffffffffffffffffff1673ffffffffffffffffffffffffffffffffffffffff1681526020019081526020016000208190555061303f826000808673ffffffffffffffffffffffffffffffffffffffff1673ffffffffffffffffffffffffffffffffffffffff168152602001908152602001600020546134a490919063ffffffff16565b6000808573ffffffffffffffffffffffffffffffffffffffff1673ffffffffffffffffffffffffffffffffffffffff168152602001908152602001600020819055508273ffffffffffffffffffffffffffffffffffffffff163373ffffffffffffffffffffffffffffffffffffffff167fddf252ad1be2c89b69c2b068fc378daa952ba7f163c4a11628f55a4df523b3ef846040518082815260200191505060405180910390a36001905092915050565b600061318182600260003373ffffffffffffffffffffffffffffffffffffffff1673ffffffffffffffffffffffffffffffffffffffff16815260200190815260200160002060008673ffffffffffffffffffffffffffffffffffffffff1673ffffffffffffffffffffffffffffffffffffffff168152602001908152602001600020546134a490919063ffffffff16565b600260003373ffffffffffffffffffffffffffffffffffffffff1673ffffffffffffffffffffffffffffffffffffffff16815260200190815260200160002060008573ffffffffffffffffffffffffffffffffffffffff1673ffffffffffffffffffffffffffffffffffffffff168152602001908152602001600020819055508273ffffffffffffffffffffffffffffffffffffffff163373ffffffffffffffffffffffffffffffffffffffff167f8c5be1e5ebec7d5bd14f71427d1e84f3dd0314c0f7b2291e5b200ac8c7c3b925600260003373ffffffffffffffffffffffffffffffffffffffff1673ffffffffffffffffffffffffffffffffffffffff16815260200190815260200160002060008773ffffffffffffffffffffffffffffffffffffffff1673ffffffffffffffffffffffffffffffffffffffff168152602001908152602001600020546040518082815260200191505060405180910390a36001905092915050565b6000600260008473ffffffffffffffffffffffffffffffffffffffff1673ffffffffffffffffffffffffffffffffffffffff16815260200190815260200160002060008373ffffffffffffffffffffffffffffffffffffffff1673ffffffffffffffffffffffffffffffffffffffff16815260200190815260200160002054905092915050565b60096020528060005260406000206000915090508054600181600116156101000203166002900480601f01602080910402602001604051908101604052809291908181526020018280546001816001161561010002031660029004801561341b5780601f106133f05761010080835404028352916020019161341b565b820191906000526020600020905b8154815290600101906020018083116133fe57829003601f168201915b505050505081565b600360009054906101000a900473ffffffffffffffffffffffffffffffffffffffff1673ffffffffffffffffffffffffffffffffffffffff163373ffffffffffffffffffffffffffffffffffffffff1614151561347f57600080fd5b61348881613673565b50565b600082821115151561349957fe5b818303905092915050565b600081830190508281101515156134b757fe5b80905092915050565b6000808373ffffffffffffffffffffffffffffffffffffffff1673ffffffffffffffffffffffffffffffffffffffff16815260200190815260200160002054811115151561350d57600080fd5b61355e816000808573ffffffffffffffffffffffffffffffffffffffff1673ffffffffffffffffffffffffffffffffffffffff1681526020019081526020016000205461348b90919063ffffffff16565b6000808473ffffffffffffffffffffffffffffffffffffffff1673ffffffffffffffffffffffffffffffffffffffff168152602001908152602001600020819055506135b58160015461348b90919063ffffffff16565b6001819055508173ffffffffffffffffffffffffffffffffffffffff167fcc16f5dbb4873280815c1ee09dbd06736cffcc184412cf7a71a0fdb75d397ca5826040518082815260200191505060405180910390a2600073ffffffffffffffffffffffffffffffffffffffff168273ffffffffffffffffffffffffffffffffffffffff167fddf252ad1be2c89b69c2b068fc378daa952ba7f163c4a11628f55a4df523b3ef836040518082815260200191505060405180910390a35050565b600073ffffffffffffffffffffffffffffffffffffffff168173ffffffffffffffffffffffffffffffffffffffff16141515156136af57600080fd5b8073ffffffffffffffffffffffffffffffffffffffff16600360009054906101000a900473ffffffffffffffffffffffffffffffffffffffff1673ffffffffffffffffffffffffffffffffffffffff167f8be0079c531659141344cd1fd0a4f28419497f9722a3daafe3b4186f6b6457e060405160405180910390a380600360006101000a81548173ffffffffffffffffffffffffffffffffffffffff021916908373ffffffffffffffffffffffffffffffffffffffff16021790555050565b828054600181600116156101000203166002900490600052602060002090601f016020900481019282601f106137b057805160ff19168380011785556137de565b828001600101855582156137de579182015b828111156137dd5782518255916020019190600101906137c2565b5b5090506137eb919061386f565b5090565b828054600181600116156101000203166002900490600052602060002090601f016020900481019282601f1061383057805160ff191683800117855561385e565b8280016001018555821561385e579182015b8281111561385d578251825591602001919060010190613842565b5b50905061386b919061386f565b5090565b61389191905b8082111561388d576000816000905550600101613875565b5090565b905600a165627a7a7230582026e2dc53771a04e0cb003ed6acdf50aac413c9805102eda1e156bdf0d98946340029",
  "source": "pragma solidity ^0.4.24;\r\n\r\nimport \"../node_modules/openzeppelin-solidity/contracts/token/ERC20/ERC20.sol\";\r\nimport \"../node_modules/openzeppelin-solidity/contracts/token/ERC20/MintableToken.sol\";\r\nimport \"../node_modules/openzeppelin-solidity/contracts/token/ERC20/BurnableToken.sol\";\r\n\r\n\r\ncontract Proposal is MintableToken, BurnableToken {\r\n\tstring public name = \"BOCIToken\";\r\n\tstring public symbol = \"BITv5\";\r\n\tuint8 public decimals = 0;\r\n\tuint public INITIAL_SUPPLY = 1000000;\r\n    \r\n    mapping(address => uint) public partyOf;\r\n    mapping(address => string) public usernames;\r\n    proposal[] public proposals;\r\n    statusLog[] public statusLogs;\r\n    address[] public members;\r\n    mapping(uint => address[]) public proposalOwners; // 0: address of ESD Sales | 1: address of PB RM | 2: address of PB KYC\r\n\r\n    struct proposal {\r\n        string title;\r\n        string content;\r\n        uint status;\r\n    }\r\n\r\n    struct statusLog {\r\n        uint id;\r\n        uint action; // 0: create 1: disapprove, 2: approve\r\n        uint date;\r\n        address user;\r\n    }\r\n\r\n    /*\r\n    partyOf:\r\n    1: ESD Sales\r\n    2: PB RM\r\n    3: PB KYC\r\n\r\n    status:\r\n    0: created by ESD Sales\r\n    1: approved by ESD Sales\r\n    2: approved by PB RM\r\n    3: approved by PB KYC\r\n    4: rejected by ESD Sales\r\n    */\r\n\r\n    function register(uint _party, string _username) public {\r\n        require(_party == 1 || _party == 2 || _party == 3);\r\n        partyOf[msg.sender] = _party;\r\n        usernames[msg.sender] = _username;\r\n        members.push(msg.sender);\r\n    }\r\n    \r\n    function getMembers() public view returns(address[]) {\r\n        return members;\r\n    }\r\n\r\n    function getProposalsCount() public view returns(uint) {\r\n        return proposals.length;\r\n    }\r\n\r\n    function getStatusLogCount() public view returns(uint) {\r\n        return statusLogs.length;\r\n    }\r\n\r\n    function create(string _title, string _content) public {\r\n        require(partyOf[msg.sender] == 1);\r\n        uint id = proposals.length; \r\n        proposals.push(proposal(_title, _content, 1));\r\n        mint(msg.sender, 1000);\r\n        statusLogs.push(statusLog(id, 0, now, msg.sender));\r\n        proposalOwners[id].push(msg.sender);\r\n        proposalOwners[id].push(address(0));\r\n        proposalOwners[id].push(address(0));\r\n\r\n    }\r\n\r\n    function approve(uint _id, string _content) public {\r\n\r\n        // party ESD Sales\r\n        if (proposals[_id].status == 0) {\r\n            require(partyOf[msg.sender] == 1 && proposalOwners[_id][0] == msg.sender);\r\n            proposals[_id].status = 1;\r\n        }\r\n        // party PB RM\r\n        else if (proposals[_id].status == 1) {\r\n            if (proposalOwners[_id][1] == address(0)) {\r\n                proposalOwners[_id][1] = msg.sender;\r\n            }\r\n            require(partyOf[msg.sender] == 2 && proposalOwners[_id][1] == msg.sender);\r\n            proposals[_id].status = 2;\r\n        }\r\n        // party PB KYC\r\n        else if (proposals[_id].status == 2) {\r\n            if (proposalOwners[_id][2] == address(0)) {\r\n                proposalOwners[_id][2] = msg.sender;\r\n            }\r\n            require(partyOf[msg.sender] == 3 && proposalOwners[_id][2] == msg.sender);\r\n            proposals[_id].status = 3;\r\n        }\r\n\r\n        statusLogs.push(statusLog(_id, 2, now, msg.sender));\r\n        proposals[_id].content = _content;\r\n        mint(msg.sender, 1000);\r\n    }\r\n\r\n    function disapprove(uint _id, string _content) public {\r\n        // party ESD Sales\r\n        if (proposals[_id].status == 0 && proposalOwners[_id][0] == msg.sender) {\r\n            require(partyOf[msg.sender] == 1);\r\n            proposals[_id].status = 4;\r\n        }\r\n        // party PB RM\r\n        if (proposals[_id].status == 1) {\r\n            if (proposalOwners[_id][1] == address(0)) {\r\n                proposalOwners[_id][1] = msg.sender;\r\n            }\r\n            require(partyOf[msg.sender] == 2 && proposalOwners[_id][1] == msg.sender);\r\n            proposals[_id].status = 0;\r\n        }\r\n        // party PB KYC\r\n        if (proposals[_id].status == 2) {\r\n            if (proposalOwners[_id][2] == address(0)) {\r\n                proposalOwners[_id][2] = msg.sender;\r\n            }\r\n            require(partyOf[msg.sender] == 3 && proposalOwners[_id][2] == msg.sender);\r\n            proposals[_id].status = 1;\r\n        }\r\n\r\n        statusLogs.push(statusLog(_id, 1, now, msg.sender));\r\n        proposals[_id].content = _content;\r\n\r\n\t\tif (balanceOf(msg.sender) <= 1000) {\r\n\t\t\tmint(msg.sender, 1000);\r\n\t\t}\r\n\r\n\t\tburn(1000);\r\n    }\r\n}",
  "sourcePath": "C:\\Users\\VincentWY.Lau\\Desktop\\bocitoken-poc-v5\\contracts\\Proposal.sol",
  "compiler": {
    "name": "solc",
    "version": "0.4.24+commit.e67f0147.Emscripten.clang"
  },
  "schemaVersion": "2.0.1",
  "updatedAt": "2018-11-21T02:31:20.210Z"
}